{
  "contractName": "CampaignFactory",
  "abi": [
    {
      "constant": true,
      "inputs": [
        {
          "name": "",
          "type": "uint256"
        }
      ],
      "name": "campaigns",
      "outputs": [
        {
          "name": "",
          "type": "address"
        }
      ],
      "payable": false,
      "stateMutability": "view",
      "type": "function"
    },
    {
      "constant": false,
      "inputs": [
        {
          "name": "min",
          "type": "uint16"
        }
      ],
      "name": "createCampaign",
      "outputs": [],
      "payable": false,
      "stateMutability": "nonpayable",
      "type": "function"
    },
    {
      "constant": true,
      "inputs": [],
      "name": "getDeployedCampaigns",
      "outputs": [
        {
          "name": "",
          "type": "address[]"
        }
      ],
      "payable": false,
      "stateMutability": "view",
      "type": "function"
    }
  ],
  "bytecode": "0x6060604052341561000f57600080fd5b610e7a8061001e6000396000f300606060405260043610610057576000357c0100000000000000000000000000000000000000000000000000000000900463ffffffff168063141961bc1461005c5780634acb9d4f146100bf578063ea073ab414610129575b600080fd5b341561006757600080fd5b61007d6004808035906020019091905050610150565b604051808273ffffffffffffffffffffffffffffffffffffffff1673ffffffffffffffffffffffffffffffffffffffff16815260200191505060405180910390f35b34156100ca57600080fd5b6100d261018f565b6040518080602001828103825283818151815260200191508051906020019060200280838360005b838110156101155780820151818401526020810190506100fa565b505050509050019250505060405180910390f35b341561013457600080fd5b61014e600480803561ffff16906020019091905050610223565b005b60008181548110151561015f57fe5b90600052602060002090016000915054906101000a900473ffffffffffffffffffffffffffffffffffffffff1681565b6101976102f3565b600080548060200260200160405190810160405280929190818152602001828054801561021957602002820191906000526020600020905b8160009054906101000a900473ffffffffffffffffffffffffffffffffffffffff1673ffffffffffffffffffffffffffffffffffffffff16815260200190600101908083116101cf575b5050505050905090565b6000813361022f610307565b808361ffff1661ffff1681526020018273ffffffffffffffffffffffffffffffffffffffff1673ffffffffffffffffffffffffffffffffffffffff16815260200192505050604051809103906000f080151561028a57600080fd5b9050600080548060010182816102a09190610317565b9160005260206000209001600083909190916101000a81548173ffffffffffffffffffffffffffffffffffffffff021916908373ffffffffffffffffffffffffffffffffffffffff160217905550505050565b602060405190810160405280600081525090565b604051610ae68061036983390190565b81548183558181151161033e5781836000526020600020918201910161033d9190610343565b5b505050565b61036591905b80821115610361576000816000905550600101610349565b5090565b9056006060604052341561000f57600080fd5b604051604080610ae68339810160405280805190602001909190805190602001909190505081600060146101000a81548161ffff021916908361ffff160217905550806000806101000a81548173ffffffffffffffffffffffffffffffffffffffff021916908373ffffffffffffffffffffffffffffffffffffffff1602179055505050610a44806100a26000396000f300606060405260043610610083576000357c0100000000000000000000000000000000000000000000000000000000900463ffffffff168063253da8bd146100885780632c304569146100b9578063688ae496146100e05780637de32c9b146101115780638191745f14610138578063937e09b1146101c6578063f96d6cbf146101f7575b600080fd5b341561009357600080fd5b61009b610280565b604051808261ffff1661ffff16815260200191505060405180910390f35b34156100c457600080fd5b6100de600480803561ffff169060200190919050506102f3565b005b34156100eb57600080fd5b6100f3610408565b604051808261ffff1661ffff16815260200191505060405180910390f35b341561011c57600080fd5b610136600480803561ffff1690602001909190505061041c565b005b341561014357600080fd5b61014b61059d565b6040518080602001828103825283818151815260200191508051906020019080838360005b8381101561018b578082015181840152602081019050610170565b50505050905090810190601f1680156101b85780820380516001836020036101000a031916815260200191505b509250505060405180910390f35b34156101d157600080fd5b6101d961063b565b604051808261ffff1661ffff16815260200191505060405180910390f35b341561020257600080fd5b61027e600480803573ffffffffffffffffffffffffffffffffffffffff1690602001909190803590602001908201803590602001908080601f0160208091040260200160405190810160405280939291908181526020018383808284378201915050505050509190803561ffff1690602001909190505061064f565b005b60008060009054906101000a900473ffffffffffffffffffffffffffffffffffffffff1673ffffffffffffffffffffffffffffffffffffffff163373ffffffffffffffffffffffffffffffffffffffff161415156102dd57600080fd5b600460009054906101000a900461ffff16905090565b600060028261ffff1681548110151561030857fe5b906000526020600020906003020190508060020160003373ffffffffffffffffffffffffffffffffffffffff1673ffffffffffffffffffffffffffffffffffffffff16815260200190815260200160002060009054906101000a900460ff1615151561037357600080fd5b60018160020160003373ffffffffffffffffffffffffffffffffffffffff1673ffffffffffffffffffffffffffffffffffffffff16815260200190815260200160002060006101000a81548160ff02191690831515021790555080600101601681819054906101000a900461ffff168092919060010191906101000a81548161ffff021916908361ffff160217905550505050565b600460009054906101000a900461ffff1681565b60008060009054906101000a900473ffffffffffffffffffffffffffffffffffffffff1673ffffffffffffffffffffffffffffffffffffffff163373ffffffffffffffffffffffffffffffffffffffff1614151561047957600080fd5b60028261ffff1681548110151561048c57fe5b906000526020600020906003020190508060010160189054906101000a900460ff161515156104ba57600080fd5b6002600460009054906101000a900461ffff1661ffff168115156104da57fe5b0461ffff168160010160169054906101000a900461ffff1661ffff1611151561050257600080fd5b60018160010160186101000a81548160ff0219169083151502179055508060010160029054906101000a900473ffffffffffffffffffffffffffffffffffffffff1673ffffffffffffffffffffffffffffffffffffffff166108fc8260010160009054906101000a900461ffff1661ffff169081150290604051600060405180830381858888f19350505050151561059957600080fd5b5050565b60018054600181600116156101000203166002900480601f0160208091040260200160405190810160405280929190818152602001828054600181600116156101000203166002900480156106335780601f1061060857610100808354040283529160200191610633565b820191906000526020600020905b81548152906001019060200180831161061657829003601f168201915b505050505081565b600060149054906101000a900461ffff1681565b6106576107fb565b6000809054906101000a900473ffffffffffffffffffffffffffffffffffffffff1673ffffffffffffffffffffffffffffffffffffffff163373ffffffffffffffffffffffffffffffffffffffff161415156106b257600080fd5b60a0604051908101604052808481526020018361ffff1681526020018573ffffffffffffffffffffffffffffffffffffffff168152602001600061ffff168152602001600015158152509050600280548060010182816107129190610851565b916000526020600020906003020160008390919091506000820151816000019080519060200190610744929190610883565b5060208201518160010160006101000a81548161ffff021916908361ffff16021790555060408201518160010160026101000a81548173ffffffffffffffffffffffffffffffffffffffff021916908373ffffffffffffffffffffffffffffffffffffffff16021790555060608201518160010160166101000a81548161ffff021916908361ffff16021790555060808201518160010160186101000a81548160ff02191690831515021790555050505050505050565b60a06040519081016040528061080f610903565b8152602001600061ffff168152602001600073ffffffffffffffffffffffffffffffffffffffff168152602001600061ffff1681526020016000151581525090565b81548183558181151161087e5760030281600302836000526020600020918201910161087d9190610917565b5b505050565b828054600181600116156101000203166002900490600052602060002090601f016020900481019282601f106108c457805160ff19168380011785556108f2565b828001600101855582156108f2579182015b828111156108f15782518255916020019190600101906108d6565b5b5090506108ff91906109ab565b5090565b602060405190810160405280600081525090565b6109a891905b808211156109a4576000808201600061093691906109d0565b6001820160006101000a81549061ffff02191690556001820160026101000a81549073ffffffffffffffffffffffffffffffffffffffff02191690556001820160166101000a81549061ffff02191690556001820160186101000a81549060ff02191690555060030161091d565b5090565b90565b6109cd91905b808211156109c95760008160009055506001016109b1565b5090565b90565b50805460018160011615610100020316600290046000825580601f106109f65750610a15565b601f016020900490600052602060002090810190610a1491906109ab565b5b505600a165627a7a723058205807d1d4f5695364d6270f51b19e255393756f0fb00c4d3473052d905cacad5c0029a165627a7a723058204ad8fe61210ce908a9cd1cbf6c26c5174100f04bb41e28d1affe66d4dda8e61c0029",
  "source": "pragma solidity ^0.4.19;\n\nimport \"./Campaign.sol\";\n\ncontract CampaignFactory\n{\n    address[] public campaigns;\n\n    function createCampaign(uint16 min) public  {\n        address temp = new Campaign( min, msg.sender );\n        campaigns.push(temp);\n    }\n    \n    function getDeployedCampaigns() public view returns (address[]){\n        return campaigns;\n    }\n}\n",
  "sourcePath": "/Users/brajesh.jaishwal/Desktop/Blockchain/EthereumPractices/CampaignApp/contracts/CampaignFactory.sol",
  "compiler": {
    "name": "solc",
    "version": "0.4.19+commit.c4cbbb05.Emscripten.clang"
  },
  "schemaVersion": "2.0.0",
  "updatedAt": "2018-05-23T17:25:00.967Z"
}